:020000023000CC
:10F000000D949AF80D94C3F80D94C3F80D94C3F8B9
:10F010000D94C3F80D94C3F80D94C3F80D94C3F880
:10F020000D94C3F80D94C3F80D94C3F80D94C3F870
:10F030000D94C3F80D94C3F80D94C3F80D94C3F860
:10F040000D94C3F80D94C3F80D94C3F80D94C3F850
:10F050000D94C3F80D94C3F80D94C3F80D94C3F840
:10F060000D94C3F80D94C3F80D94C3F80D94C3F830
:10F070000D94C3F80D94C3F80D94C3F80D94C3F820
:10F080000D94C3F80D94C3F80D94C3F80D94C3F810
:10F090000D94C3F80D94C3F80D94C3F80D94C3F800
:10F0A0000D94C3F80D94C3F80D94C3F80D94C3F8F0
:10F0B0000D94C3F80D94C3F80D94C3F80D94C3F8E0
:10F0C0000D94C3F80D94C3F80D94C3F80D94C3F8D0
:10F0D0000D94C3F80D94C3F80D94C3F80D94C3F8C0
:10F0E0000D94C3F80D94C3F80D94C3F80D94C3F8B0
:10F0F0000D94C3F80D94C3F80D94C3F80D94C3F8A0
:10F100000D94C3F80D94C3F80D94C3F80D94C3F88F
:10F110000D94C3F80D94C3F80D94C3F80D94C3F87F
:10F120000D94C3F80D94C3F80D94C3F80D94C3F86F
:10F130000D94C3F811241FBECFEFD1E8DEBFCDBFC1
:10F1400001E00CBF12E0A0E0B2E0E6E5F8EF03E07A
:10F150000BBF02C007900D92A430B107D9F722E08F
:10F16000A4E0B2E001C01D92A630B207E1F70F940F
:10F17000E0F80D9429FC01E80EBF0FEF0DBF11243C
:10F180001FBE0D94E0F80D9400F88093CE0080919E
:10F19000C80086FFFCCF8091C80080648093C800BF
:10F1A000089520E030E02817390749F0E7EEF3E052
:10F1B0003197F1F700C000002F5F3F4FF4CF089563
:10F1C000CF93DF93CDB7DEB7C352D1400FB6F894DB
:10F1D000DEBF0FBECDBF01E80EBF0FEF0DBF94B76E
:10F1E000F894A89514BE80916000886180936000B7
:10F1F00010926000789493FF05C0E0910402F091B2
:10F20000050219956A9A729A68981092C80010922D
:10F21000C9008091CE008091C80082608093C800B0
:10F2200089E18093CC0088E18093C9000000609957
:10F23000C3C2C12CD12C760173EE872E7DE0972EB0
:10F24000A12CB12CE4E07E2E00E010E08091C800FB
:10F2500087FF06C00F5F1F4F01151105A9F327C0D7
:10F2600001151105B9F722E02A95F1F700C04FEF1B
:10F27000C41AD40AE40AF40A91E080E0A1EFCA16A5
:10F28000A9E4DA06A2E0EA06F10408F490E0092F06
:10F29000182FC701B601A50194010F94F9FB672B44
:10F2A000682B692B99F68EB187258EB9CFCF0130A7
:10F2B000110509F081C2C25EDE4F1882CE51D140E5
:10F2C000912C212C312C412C512C3201C12CD12CD0
:10F2D000760120E030E060E001301105F9F080E0D7
:10F2E00090E0DC014091C80047FD18C00196A11DC7
:10F2F000B11D8130E9E09E07EDE3AE07B10590F363
:10F3000080E090E0DC01ABBFFC01479156914F3F9C
:10F310005F4F29F3EE27FF270994E1CF4091CE00FC
:10F32000633001F120F4613071F038F014C06530C1
:10F3300029F1E0F0663091F17CC04B3109F450C204
:10F3400000E010E0C9CF9426C25EDE4F4883CE5164
:10F35000D14062E0F5CF242F30E0322F22279426CF
:10F3600063E0EECF242B942664E0EACF4E3009F020
:10F370003EC29426212C312C65E0E2CFC1010196DA
:10F38000E1E0F0E0EC0FFD1FE20DF31D4083942659
:10F390008217930709F428C21C01D2CF491127C252
:10F3A0002981233109F4E3C060F5263009F4CCC08B
:10F3B00000F5223009F441C0233009F46BC021303C
:10F3C00009F0A7C11A8288E08B8381E48C8386E5EB
:10F3D0008D8382E58E8389E48F8383E5888780E54A
:10F3E00089878FE58A8782E38B87812C0BE010E089
:10F3F00095C1213109F45BC008F09DC02031E9F0CE
:10F4000088C1283109F46FC048F4253109F4AFC030
:10F4100008F432C1263109F42FC17BC12A3109F425
:10F4200055C008F476C02B3109F445C02D3139F0B0
:10F4300070C1673009F4B4CF83CF812C3AC08D817D
:10F44000803339F49F819923B1F09130B1F498EA77
:10F4500017C0982F907599F0803521F499E0E0E07D
:10F46000F0E005C0883559F4E3E0F0E099E09093CE
:10F470005700949105C09EE103C092E001C090E066
:10F480001A821B828C831D829E831F82812C07E03F
:10F4900010E044C1EA81E059E33028F4F0E0E050A4
:10F4A000FE4F808101C080E01A828B8340C0882497
:10F4B00083941A8231C18D81882321F0813021F417
:10F4C00088EA24C08EE122C082E020C01A82E1E0F6
:10F4D000F0E089E080935700E491EB831C82812C5B
:10F4E00004E010E01BC18B81803551F48C818830A1
:10F4F00019F4E2E0F0E006C089E0E0E0F0E003C0EB
:10F50000E3E0F0E089E08093570084911A828B83D6
:10F51000E5CF8D81836C99E0E1E0F0E0082E9093D7
:10F520005700E89507B600FCFDCF1A821B82812C9C
:10F5300003E010E0F3C080EC8A83812C02E010E04D
:10F54000412C512C3201EAC08A81CB80D12CE12C94
:10F55000F12C7601DD24CC24F82A8D81C82A8C81F7
:10F56000D82ACC0CDD1CEE1CFF1C1A82D4C00A81E8
:10F5700010E0102F00278B81082B233109F046C0A3
:10F580004114F0EC5F06F3E06F06710470F423E0C1
:10F59000F20160925B0020935700E89507B600FCEB
:10F5A000FDCF4FEF541A640A740A2B85B701A601E8
:10F5B000CE010B96BB24B394DC011296CD01FD0164
:10F5C0003197E08130E03E2B0901FA0160935B0046
:10F5D000B0925700E89511244E5F5F4F6F4F7F4FF9
:10F5E000025011090115110511F02C91E5CF85E0AC
:10F5F000F601E0925B0080935700E89507B600FCA7
:10F60000FDCF81E180935700E89532C0D701C60154
:10F61000B695A79597958795C15EDE4F88839983A8
:10F62000AA83BB83CF51D140DE011B964D01A12C93
:10F63000B12CA016B10689F0F40161914F01C15EB1
:10F64000DE4F88819981CF51D1408A0D9B1D0F9447
:10F650001BFCFFEFAF1ABF0AECCFA50160E070E022
:10F66000440F551F661F771F4C0D5D1D6E1D7F1DBE
:10F670001A826A017B014FC08A8190E0982F882707
:10F680003B81832B8C010D5F1F4F1A822431A1F423
:10F69000DE011396EBBEF601279136912C9312965C
:10F6A000FD013197308322E0C20ED11CE11CF11C18
:10F6B0000297009779F72AC0FE0133969C01B701A3
:10F6C000A60141BD852E962EA72EBB2482BC4F5F7E
:10F6D0005F4F6F4F7F4FF89AA0B5A193215031092A
:10F6E0002115310571F7AC014150510960E070E01E
:10F6F0004F5F5F4F6F4F7F4FC40ED51EE61EF71E44
:10F70000A3E0B0E0AC0FBD1FA80FB91F1C92812C65
:10F7100005C080EC8A83812C02E010E08BE10F941D
:10F72000C5F8C25EDE4F8881CE51D1400F94C5F836
:10F73000812F0F94C5F8802F0F94C5F88EE00F9499
:10F74000C5F895E1992EC25EDE4F4881CE51D14079
:10F75000942690269126CE0101965C01080F191F70
:10F76000A016B10691F0F50191915F01892FCD5D51
:10F77000DE4F9883C352D1400F94C5F8CD5DDE4F64
:10F780009881C352D1409926EBCF892D0F94C5F8AB
:10F79000C25EDE4F2881CE51D1402F5FC25EDE4F68
:10F7A0002883CE51D1408EB144E084278EB9811098
:10F7B00003C000E010E08DCD6A98729884E690E076
:10F7C0000F94D1F800008091C8008D7F8093C8000D
:10F7D00081E180935700E895EE27FF270994FFCF3A
:10F7E0008BE1982E61E0ACCD190166E0A9CD60E017
:10F7F000A7CDA1E21A2EAA1BBB1BFD010DC0AA1F9B
:10F80000BB1FEE1FFF1FA217B307E407F50720F089
:10F81000A21BB30BE40BF50B661F771F881F991F04
:10F820001A9469F760957095809590959B01AC014D
:10F83000BD01CF010895262FF999FECF1FBA92BDC1
:10F8400081BD20BD0FB6F894FA9AF99A0FBE0196C1
:06F850000895F894FFCFBB
:04F856000F020A0093
:040000033000F000D9
:00000001FF
