:100000007BC0000094C0000092C0000090C00000BF
:100010008EC000008CC000008AC0000088C00000B4
:1000200086C0000084C0000082C00000DBC3000066
:1000300080C400007CC000007AC0000078C00000CE
:1000400076C0000074C0000072C0000070C00000E4
:100050006EC000006CC000006AC00000A5C10000B6
:1000600066C0000064C0000062C0000060C0000004
:100070005EC00000F50417050106170501065905C5
:1000800076050106C905DB05000018034100700074
:1000900069006F00200044006F006E0067006C0074
:1000A000650000000403090409023E00020100C0CB
:1000B000FA090400000102020100052400011004F5
:1000C0002402060524060001070582030800FF0933
:1000D000040100020A0000000705040240000107B5
:1000E0000583024000011201100102000008D01631
:1000F0005E0A01000102DC0111241FBECFEFD2E035
:10010000DEBFCDBF11E0A0E0B1E0ECE0FFE002C057
:1001100005900D92A631B107D9F722E0A6E1B1E032
:1001200001C01D92AF32B207E1F766D0EDC668CFCD
:10013000FC01E058FF4FA081B1816C93A081B18197
:100140009D012F5F3F4F318320832E173F0721F4FE
:1001500012969C938E9311972FB7F894FC01EC574D
:10016000FF4F80818F5F80832FBF0895DC01AE57E2
:10017000BF4FED91FC91119741911196FC93EE9335
:100180009C0120583F4FE217F30711F48D939C9385
:100190002FB7F894FC01EC57FF4F9081915090835A
:1001A0002FBF842F089584B7877F84BF88E10FB65F
:1001B000F89480936000109260000FBE87E690E094
:1001C0009093CD008093CC0086E08093CA0010927B
:1001D000C80088E18093C900539A5A9A8AB1806610
:1001E0008AB98BB180668BB9F2D28AB18BB184E0C7
:1001F00085BD5F9A579A0895D6DF2FB7F8948EE998
:1002000091E090931F0280931E02909321028093AD
:1002100020022FBF2FB7F89489E191E090939A01C3
:100220008093990190939C0180939B012FBF7894B8
:10023000D3E09FB7F894809122029FBF803849F0A5
:1002400080E091E00ED697FD04C0682F8EE991E022
:100250006FDF8FB7F894C0919D018FBFA89902C03E
:10026000C13658F1A89A80919D01882319F05D98B4
:10027000D0931601CC2349F089E191E077DF682F14
:1002800080E091E093D5C150F5CF8091160188238D
:1002900041F080911601815080931601811101C0B7
:1002A0005D9A80911701882341F080911701815058
:1002B00080931701811101C05E9A9FB7F8948091D5
:1002C00022029FBF882361F08EE991E04FDF909179
:1002D000C80095FFFCCF8093CE005E98D0931701A5
:1002E00080E091E0B0D59AD4A4CF80E091E011C530
:1002F00080E091E0A5C41F93CF93DF93EC018C893C
:10030000813031F0823011F010E003C010E201C002
:1003100010E38B89823009F418608D89873031F0C1
:10032000883031F0863029F4126003C0146001C0B7
:1003300016601092C9001092C8001092CA002F8552
:10034000388949895A89211581EE380741055105B7
:1003500071F0CA01B90196958795779567956058B0
:100360007B47814E9F4FA8D52150310902C020E123
:1003700030E03093CD002093CC001093CA008F85DD
:100380009889A989BA898115914EA105B10511F401
:1003900080E001C082E08093C80088E98093C900B2
:1003A000DF91CF911F9108951F920F920FB60F9278
:1003B00011242F933F934F935F936F937F938F936A
:1003C0009F93AF93BF93EF93FF936091CE008EB353
:1003D000843019F489E191E0ABDEFF91EF91BF9198
:1003E000AF919F918F917F916F915F914F913F91CD
:1003F0002F910F900FBE0F901F901895FC018585CF
:1004000080FF02C05F9808955F9A0895292F3327CF
:100410002230310559F02330310569F021303105A2
:10042000F9F482E190E026EE30E01EC08EE390E029
:1004300028EA30E019C099278130910541F08230D7
:10044000910541F0892B61F4E4EAF0E005C0EAE8A7
:10045000F0E002C0E8E8F0E0849190E09F0104C081
:1004600080E090E020E030E0FA01318320830895BD
:1004700028E030E040E02817390720F44F5F220FD2
:10048000331FF9CF842F8295807F08958093E900F0
:10049000EBEEF0E0808181608083EDEEF0E0108291
:1004A0006093EC0040838091EE00881F8827881FAE
:1004B00008951092F40080E08093E9001092F0001B
:1004C0001092E8001092ED009091EB009E7F9093C7
:1004D000EB008F5F853081F708958091270287FDBB
:1004E00005C08091E80080FF0DC010C08091E80039
:1004F00082FD04C08EB38111F9CF08958091E80088
:100500008B7707C08EB38111ECCF08958091E800FE
:100510008E778093E800089585E69091EC0090FF37
:1005200005C09091E80090FF05C01BC09091E800C5
:1005300092FD17C09EB39923B1F09EB39530A9F0F8
:100540009091EB0095FD13C09091E10092FFE5CFF3
:100550009091E1009B7F9093E1008150F1F684E05F
:10056000089580E0089582E0089583E0089581E091
:10057000089520912D0230912E022617370748F05A
:100580006115710539F42091E8002E772093E80079
:1005900001C0B90130E06115710591F12091E800C9
:1005A00023FD38C02091E80022FF06C08091E800BA
:1005B00082FF29C080E008952EB3222369F12EB373
:1005C000253061F12091E80020FFE5CF2091F20075
:1005D000FC01CF016115710549F0283038F4819193
:1005E0008093F100615071092F5FF3CF31E0283023
:1005F00009F030E02091E8002E772093E800CBCF7F
:100600003111CCCFD3CF8EB3882331F08EB3853068
:1006100069F604C081E0089582E0089583E00895BA
:1006200020912D0230912E022617370748F06115D0
:10063000710539F42091E8002E772093E80001C07D
:10064000B90130E06115710599F12091E80023FDB1
:1006500039C02091E80022FF06C08091E80082FFA7
:100660002AC080E008952EB3222371F12EB32530E5
:1006700069F12091E80020FFE5CF2091F200FC0114
:10068000CF016115710551F0283040F484918093B9
:10069000F100615071092F5F3196F2CF31E02830BF
:1006A00009F030E02091E8002E772093E800CACFCF
:1006B0003111CBCFD2CF8EB3882331F08EB38530BA
:1006C00061F604C081E0089582E0089583E0089512
:1006D0006115710529F42091E8002B772093E8003B
:1006E0006115710549F12091E80023FD2AC02EB360
:1006F000222359F12EB3253051F12091E80022FF39
:10070000F2CFFC018091F200882371F09F012F5FEE
:100710003F4FC9014091F10040836150710961155B
:100720007105C9F2F901EECFCF01D5CF8EB3882381
:1007300061F08EB3853059F08091E80080FFF6CFEC
:1007400002C081E0089580E0089582E0089583E08A
:10075000089542D044D01EBA10922502109224026D
:100760001092230284E089BD89B5826089BD09B4F5
:1007700000FEFDCF8091D800982F9F779093D800EE
:1007800080688093D800809163008E7F809363009F
:100790008091D8008F7D8093D8008091E0008E7F7B
:1007A0008093E0008091E1008E7F8093E100809152
:1007B000E20081608093E2008091E100877F809376
:1007C000E1008091E20088608093E2000895C1DF3B
:1007D00081E08093260208951092E200089510921D
:1007E000E10008951F920F920FB60F9211242F93DC
:1007F0003F934F935F936F937F938F939F93AF93A9
:10080000BF93EF93FF938091E10080FF1BC0809125
:10081000E20080FF17C08091E1008E7F8093E100AD
:100820008091E2008E7F8093E2008091E2008061FF
:100830008093E2008091D80080628093D80019BC38
:100840001EBAEBD18091E10084FF29C08091E200C3
:1008500084FF25C084E089BD89B5826089BD09B463
:1008600000FEFDCF8091D8008F7D8093D8008091CD
:10087000E1008F7E8093E1008091E2008F7E809383
:10088000E2008091E20081608093E2008091250285
:10089000882311F084E001C081E08EBBBED180913D
:1008A000E10083FF27C08091E20083FF23C0809195
:1008B000E100877F8093E10082E08EBB10922502E9
:1008C0008091E1008E7F8093E1008091E2008E7F35
:1008D0008093E2008091E20080618093E200E9DD94
:1008E00042E060E080E0D2DD8091F000886080939B
:1008F000F00093D18091E10082FF0AC08091E20074
:1009000082FF06C08091E1008B7F8093E10085D15A
:10091000FF91EF91BF91AF919F918F917F916F91D7
:100920005F914F913F912F910F900FBE0F901F90AD
:1009300018951F920F920FB60F9211242F933F9389
:100940004F935F936F937F938F939F93AF93BF93D7
:10095000CF93EF93FF93E9EEF0E0C081C770108270
:10096000E0EFF0E08081877F808378941CD0F8945A
:10097000E9EEF0E01082A0EFB0E08C9188608C93FB
:10098000C083FF91EF91CF91BF91AF919F918F91D4
:100990007F916F915F914F913F912F910F900FBE7B
:1009A0000F901F9018951F93CF93DF93CDB7DEB7AD
:1009B000AA970FB6F894DEBF0FBECDBFE7E2F2E014
:1009C0008091F100819322E0EF32F207C9F7209184
:1009D000270230912802832F90E08A30910508F099
:1009E00010C1FC01E65CFF4F89C2203881F022383B
:1009F00009F007C180912B0287708093E9008091F4
:100A0000EB0085FB882780F91092E90006C08091F1
:100A1000230290912402911182609091E800977FC7
:100A20009093E8008093F1001092F100BDC0822FF6
:100A30008D7F09F0E6C0222319F0223061F0D2C088
:100A400080912902813009F0CDC0333009F080E077
:100A50008093240228C080912902811124C0209112
:100A60002B02277009F4BEC02093E9008091EB00AF
:100A700080FFB8C08091EB00333011F4806211C068
:100A800080618093EB0081E090E0022E01C0880F2E
:100A90000A94EAF78093EA001092EA008091EB0052
:100AA00088608093EB001092E9008091E800877FD6
:100AB0007EC02111A6C0109129028091E800877F95
:100AC0008093E8000ADD8091E80080FD04C08EB3C9
:100AD0008111F9CF87C0812F8F7711F093E001C08A
:100AE00092E09EBB80688093E3007CC02058223057
:100AF00008F087C08091290290912A028C3D23E062
:100B0000920781F583E08A838AE289834FB7F8945C
:100B1000DE01139620E03EE051E2E32FF0E0509337
:100B20005700E49120FF03C0E295EF703F5FEF7044
:100B300090E39E0F9A3310F0E95C01C0E92F8E2FED
:100B400090E08D939D932F5F243139F74FBF8091B3
:100B5000E800877F8093E8006AE270E0CE010196AA
:100B600008DD11C0AE014F5F5F4F60912B024EDC7C
:100B70000097C1F12091E800277F2093E800BC0195
:100B800089819A814DDD8091E8008B778093E80020
:100B900029C02038B1F58091E800877F8093E80074
:100BA000809125028093F1008091E8008E778093F8
:100BB000E80093DC17C0211124C0909129029230E3
:100BC00088F48091E800877F8093E8009093250265
:100BD00084DC80912502882311F084E001C083E049
:100BE0008EBB83DB8091E80083FF0DC08091EB001A
:100BF00080628093EB008091E800877F8093E8001B
:100C000002C076DBEFCFAA960FB6F894DEBF0FBE18
:100C1000CDBFDF91CF911F9108950895CF938EB3EB
:100C2000882359F0C091E900C7701092E9008091C3
:100C3000E80083FDB8DEC093E900CF9108950895E0
:100C4000CF93DF93EC018091E80083FF5FC0888140
:100C500090E020912B0230912C022817390709F0DF
:100C600055C080912802813249F018F48032C9F0D1
:100C70004DC0823261F18332C9F148C080912702B0
:100C8000813A09F043C08091E800877F8093E800B3
:100C900067E070E0CE010F966CDC8091E8008B7706
:100CA00013C080912702813289F58091E800877F07
:100CB0008093E80067E070E0CE010F9609DDCE0179
:100CC0001ADB8091E8008E778093E8001FC0809146
:100CD00027028132D9F48091E800877F8093E80071
:100CE000809129028D87CE0189DB0DC0809127027A
:100CF000813261F48091E800877F8093E800609101
:100D00002902CE019CDFDF91CF91E7CBDF91CF911C
:100D100008950F931F93CF93DF93EC01FC013D9651
:100D200089E0DF011D928A95E9F72A813B818C8158
:100D3000882311F014E001C010E00981C90198DB9B
:100D4000412F482B426061E8802FA0DB882341F1CE
:100D50002E813F818885882311F014E001C010E0C6
:100D60000D81C90185DB412F482B426060E8802F4F
:100D70008DDB8823A9F02A853B858C85882311F09B
:100D800014E001C010E0C985C90172DB412F482B76
:100D9000426061EC8C2FDF91CF911F910F9176CB48
:100DA00080E0DF91CF911F910F910895CF93C62FCF
:100DB0002EB32430E9F4FC0147855089618972899A
:100DC000452B462B472BA1F081818093E900809130
:100DD000E80085FF04C0C093F10080E00AC0809164
:100DE000E8008E778093E80097DB8823A1F301C0A9
:100DF00082E0CF9108952EB3243019F5FC01478588
:100E0000508961897289452B462B472BD1F081810E
:100E10008093E9008091F200882389F09091E800A6
:100E20008091E8008E778093E80095FD08C074DB20
:100E3000811108C08091E8008E778093E80080E0FF
:100E4000089582E008952EB3243051F4FC014785C3
:100E5000508961897289452B462B472B09F0CBCFEE
:100E600008952EB3243019F08FEF9FEF0895FC0101
:100E70004785508961897289452B462B472BA1F301
:100E800085818093E9008091E80082FFEDCF809119
:100E9000F200882321F02091F10030E002C02FEF12
:100EA0003FEF8091F200811105C08091E8008B77BF
:100EB0008093E800C9010895A1E21A2EAA1BBB1B6A
:100EC000FD010DC0AA1FBB1FEE1FFF1FA217B30716
:100ED000E407F50720F0A21BB30BE40BF50B661F2C
:100EE000771F881F991F1A9469F7609570958095F0
:100EF00090959B01AC01BD01CF010895EE0FFF1F3E
:0C0F00000590F491E02D0994F894FFCFC7
:100F0C000003400000044000000208000000000044
:060F1C00000000000000CF
:00000001FF
